:020000040800F2
:1000000080040020A101000853160008190F000801
:1000100051160008AD02000801170008000000009A
:10002000000000000000000000000000571600085B
:100030008903000800000000551600085916000842
:10004000BB010008BB010008BB010008BB010008A0
:10005000BB010008BB010008BB010008BB01000890
:10006000BB010008BB010008BB010008BB01000880
:10007000BB010008BB010008BB010008BB01000870
:10008000BB010008BB010008BB010008BB01000860
:10009000BB010008BB010008BB010008BB01000850
:1000A000BB010008BB010008BB010008BB01000840
:1000B000BB010008BB010008BB010008BB01000830
:1000C000BB010008BB010008BB010008BB01000820
:1000D000BB010008BB010008BB010008BB01000810
:1000E000BB010008BB010008BB010008BB01000800
:1000F000BB010008BB010008BB010008BB010008F0
:10010000BB010008BB010008BB010008BB010008DF
:10011000BB010008BB010008BB010008BB010008CF
:10012000BB010008BB010008BB010008BB010008BF
:10013000BB010008BB010008BB010008BB010008AF
:10014000BB010008BB010008BB010008BB0100089F
:10015000BB010008BB010008BB010008BB0100088F
:10016000BB010008BB010008BB010008BB0100087F
:10017000BB010008BB010008BB0100080000000033
:10018000BB010008BB010008DFF810D000F07CF8CC
:100190000048004741170008AFF3008080040020AA
:1001A0000648804706480047FEE7FEE7FEE7FEE711
:1001B000FEE7FEE7FEE7FEE7FEE7FEE7F1160008D2
:1001C000890100082DE9F05F0546002092469B4614
:1001D00088460646814640241BE02846414647465D
:1001E000224600F041F853465A46C01A914110D3B6
:1001F00011461846224600F028F82D1A67EB010830
:100200004F4622460120002100F01FF817EB00099D
:100210004E41201EA4F10104DFDC484631462A4647
:100220004346BDE8F09FD2B201E000F8012B491E21
:10023000FBD270470022F6E710B513460A46044683
:100240001946FFF7F0FF204610BD202A04DB203AB4
:1002500000FA02F1002070479140C2F1200320FA19
:1002600003F3194390407047202A04DB203A21FA17
:1002700002F00021704721FA02F3D040C2F12002BF
:100280009140084319467047064C074D06E0E06868
:1002900040F0010394E8070098471034AC42F6D3CD
:1002A000FFF776FF7817000898170008FEE70000B0
:1002B000F8B54EF67D7000F031FE324C4FF47845C3
:1002C000009560880521401F83B22088401F82B2BC
:1002D000084600F067FF4FF6E0760096608814212C
:1002E000143883B22088143882B2084600F05AFFCE
:1002F0001F20009060883221323883B22088323843
:1003000082B2084600F04EFF4FF61F000090608852
:100310006421503883B22088503882B2502000F0D7
:1003200041FF4FF47A7000F03BF94FF6FF7000F098
:10033000F5FD00F088F84FF4FA74204600F030F92B
:10034000002000F0EBFD204600F02AF9284600F0DE
:10035000E5FD204600F024F9304600F0DFFD2046A0
:1003600000F01EF94FF4FC6000F0D8FD204600F0CC
:1003700017F91F2000F0D2FD2046BDE8F84000F03C
:100380000FB900006C000020704710B54EF67D706C
:1003900000F0C4FD5823E0224021102000F014F8A2
:1003A0008023E0226821102000F00EF8A823E0222C
:1003B0009021102000F008F84FF4FA6000F0F0F8F7
:1003C000BDE81040FFF774BF2DE9F8431C464FF617
:1003D000FF78074615460E460B46CDF8008000F024
:1003E000F3FD3A46234631461046CDF8008000F032
:1003F000EBFD601E83B281B248F21048781C80B2D7
:100400002A46CDF8008000F0DFFD44F2082923469B
:100410002A4619463846CDF8009000F0D5FD681EF2
:1004200082B2711C89B280B22346CDF8008000F000
:10043000CBFD2A46234631461046CDF8009000F009
:10044000C3FDBDE8F88338B54FF6FF7000F066FDD8
:100450004FF478448023DC2240211420009400F0E3
:10046000B3FD4023DC2280211420009400F0ACFD79
:100470001F2000908023DC224021142000F0F2FD98
:100480004FF61F04234651226021782000F00CFE15
:10049000234650226021782000F006FE23464F229A
:1004A0006021782000F000FEBDE838404FF47A70FB
:1004B00000F076B872B6FEE730B5B3F5804F05D0E0
:1004C0006FF0704140F82210002030BD8C690B683D
:1004D0008D6823434C688989240144EA0524234319
:1004E00043EA014150F82230014C23401943E9E727
:1004F0000000F0CF10B50A6850F8223023F0010355
:1005000040F822308C68082C23D000234A6822430C
:10051000CC681C430B6922431A434B690E4C1A43A7
:10052000CB691A430B6A1A434B6A1A438B6A1A4304
:10053000CB6A1A430B6B1A438B691343CA6B096866
:100540001A4350F82130A343134340F821300020D0
:1005500010BD4023DAE700007FFF0F0030B5D1E97E
:10056000003443EA04138C688D89240244EA05446C
:1005700023430C8A094D00EB820005EB045423430E
:100580000C7D6D0105EB0464896923430B434168CD
:1005900001F040410B434360002030BD0000F0FFFC
:1005A00070B5044600F060F90546601C02D00448AE
:1005B0000078044400F058F9401BA042FAD370BD03
:1005C000080000202DE9F04186B014216846FFF7AD
:1005D00031FE20480168002939D1012101601E48FF
:1005E0000024016841F00101016000684FF4805867
:1005F00000F001000C27CDF80080CDE9047003263F
:1006000002250396CDE901546946144800F02EF8FE
:100610004FF68070CDE9000502AA694682E8D00055
:100620000F4800F023F84CF23370CDE9000502AA20
:10063000694682E8D0000B4800F018F802AA694623
:1006400082E8D000CDE90085074800F00FF806B039
:10065000BDE8F0810000002038380240001402405C
:1006600000100240000C0240001802402DE9F84F33
:10067000DFF8BCA10022012503264FF00F090AF183
:10068000040BAAF1040E00BF0B6805FA02F4234024
:10069000A34270D10F7907F00307012F01D0022F79
:1006A00016D187684FEA420806FA08FC27EA0C07C9
:1006B000D1F80CC00CFA08FC4CEA070CC0F808C0D2
:1006C0004768A7430C79C4F3001494403C4344604A
:1006D0000C79E443A4070AD0C4684FEA420C06FA36
:1006E0000CF7BC438F6807FA0CF72743C7600C79F7
:1006F00004F00304022C12D1D40800EB840CDCF8C3
:1007000020405707FF0E09FA07F824EA0804D1F839
:10071000108008FA07F848EA0408CCF8208004683A
:100720004FEA420C06FA0CF7BC430F7907F00307B7
:1007300007FA0CF7274307604C6814F4403F70D069
:100740003C4C276847F480472760246822F0030761
:1007500004F480440094384C07EB040CDCF808489F
:1007600097074FEA177809FA08F7BC43334FB842A6
:1007700002D1002724E054E0314FB84201D10127D3
:100780001EE0304FB84201D1022719E02E4FB84287
:1007900001D1032714E02D4FB84201D104270FE007
:1007A0002B4FB84201D105270AE02A4FB84201D1A8
:1007B000062705E0284FB84201D1072700E00827A7
:1007C00007FA08F72743CCF80878DAF800405746CC
:1007D000D1F804C09C435FEACC2C00D51C433C609C
:1007E000DBF800405F46D1F804C09C435FEA8C2CE4
:1007F00000D51C433C60DEF800407746D1F804C0C9
:100800009C435FEA8C3C00D51C433C60084F083F8A
:100810003C68D1F804C09C435FEACC3C00D51C4343
:100820003C60521C102AFFF42FAFBDE8F88F000087
:10083000083C0140443802400030014000000240C2
:100840000004024000080240000C02400010024078
:100850000014024000180240001C02400AB18161ED
:1008600070470904FBE700000148806870470000FA
:1008700008000020024881680278114481607047B6
:10088000080000200B4810B5016841F400710160B8
:10089000016841F480610160016841F48071016088
:1008A000032000F061F80F2000F006F800F024F8B3
:1008B000002010BD003C024070B50D4D04464FF4C1
:1008C0007A712878B1FBF0F00A490968B1FBF0F0C1
:1008D00000F00EFB48B9102C07D200222146501E12
:1008E00000F022F800206C6070BD012070BD000097
:1008F00008000020140000200A4808B5016841F4EF
:1009000080410160006800F4804000900548001FAD
:10091000016841F080510160006800F08050009053
:1009200008BD000044380240F0B40E4B1B680C4672
:10093000C3F30223C3F10705042D00D90425191DB3
:10094000072901D2002300E0DB1E012606FA05F18B
:10095000491E214099409E40761E16403143F0BC0E
:1009600000F0CFBE0CED00E0064900F00702086879
:100970004FF6FF03184040EA0220034A1043086084
:10098000704700000CED00E00000FA052DE9F0478B
:100990000E46050065D0DFF81481D8F80000F7B2E4
:1009A00000F00700B04207D288F80070D8F80000C5
:1009B00000F00700B04254D128683D4C810712D5A1
:1009C000400703D5206840F4E050206028780007F5
:1009D00003D5206840F4604020602068A96820F0BA
:1009E000F000084320602878C0072DD0304968689F
:1009F0000839012812D0022813D0032811D0096821
:100A0000890700292DDA216821F0030101432160C3
:100A1000FFF72AFF814641F2883A0EE00968890310
:100A2000EFE709688901ECE7FFF71EFFA0EB09017A
:100A3000514502D90320BDE8F0872068696800F0BD
:100A40000C00B0EB810FEFD1D8F80010404601F058
:100A50000701B14207D90770006800F00700B042F3
:100A600001D00120E7E72878400705D52068E9682C
:100A700020F4E050084320602878000706D520685D
:100A8000296920F4604040EAC100206000F018F8B5
:100A90002168084AC1F30311515CC8400649086047
:100AA00006480068FFF708FF0020C4E7003C02404A
:100AB0000838024068170008140000200C000020CD
:100AC000154810B5006810F00C02144813D01449F2
:100AD000042A0FD0082A0ED10F4C241F2268236845
:100AE00002F03F025B0207D52068C0F38810A0FB2C
:100AF000010106E0084610BD2168C1F38811A1FB81
:100B000000010023FFF75EFB2168C1F30141491C8E
:100B10004900B0FBF1F010BD083802400024F40099
:100B200040787D012DE9F84F04006ED02078DFF881
:100B30004C93C007A9F104054AD009F104000168EB
:100B4000C1F38101012908D00068C0F381000228A7
:100B50000AD1D9F80000400206D52868800337D5AD
:100B600060680028E1D033E06068B0F5803F10D0C5
:100B7000B0F5A02F286810D020F4803028602868B5
:100B800020F4802028606068A8B1FFF76DFE06465B
:100B90000DE0286840F48030F4E740F480202860BD
:100BA000F7E700BFFFF760FE801B642873D8286852
:100BB0008003F7D50CE0FFF757FE064605E000BFBF
:100BC000FFF752FE801B6428F0D828688003F7D412
:100BD0002078DFF8AC8280074FF0000A3ED5A748A6
:100BE000001D016811F00C0F08D00068C0F38100EF
:100BF00002280BD1D9F80000400207D428688007EA
:100C000016D5E068012800D112E033E1E068B8B100
:100C10000120C8F80000FFF727FE064605E000BFE8
:100C2000FFF722FE801B0228C0D828688007F7D56E
:100C30002868216920F0F80040EAC10028600DE032
:100C4000C8F800A0FFF710FE064604E0FFF70CFE10
:100C5000801B02281FD828688007F7D42078000757
:100C600022D5864F87486169703771B101210160D3
:100C7000FFF7FAFD064604E0FFF7F6FD801B0228A9
:100C800009D838688007F7D50EE0C0F800A0FFF754
:100C9000EBFD064605E082E0FFF7E6FD801B02283B
:100CA0007DD838688007F7D42078400768D5DFF80A
:100CB000CCB100270BF13C0BDBF80000C0000BD4DB
:100CC000DBF8001041F08051CBF80010DBF8000099
:100CD000012700F0805000906B4E3068C00510D4A2
:100CE000306840F480703060FFF7BEFD009005E092
:100CF000FFF7BAFD0099401A022850D83068C005A5
:100D0000F6D55E4EA0686C3601280FD005283068F5
:100D100010D020F001003060306820F00400306016
:100D2000A068B8B1FFF7A0FD00900FE0306840F078
:100D30000100F4E740F004003060F7E7FFF794FDAE
:100D40000099411A41F28830814266D830688007A4
:100D5000F4D50EE0FFF788FD009007E0FFF784FD73
:100D60000099411A41F28830814256D83068800794
:100D7000F4D42FB1DBF8001021F08051CBF8001033
:100D8000A069C8B33D49091D0968C1F38101022961
:100D90004AD00228504607D0C8F8600000E03CE086
:100DA000FFF762FD04463BE04746C8F86000FFF7E6
:100DB0005BFD064605E000BFFFF756FD801B0228DD
:100DC0002BD828688001F7D4D4E907010843A16A29
:100DD0002E4A490802EB0141626A41EA8211084346
:100DE00094F82C1040EA0161C9F80010012038661F
:100DF000FFF73AFD044606E03EE000BFFFF734FD92
:100E0000001B022809D828688001F7D534E000BF0C
:100E1000FFF72AFD001B022802D90320BDE8F88F46
:100E200028688001F4D427E00128F7D0D9F8000021
:100E3000E26900F4800191421CD1226A00F03F0176
:100E4000914217D147F6C071626A0140B1EB821F2F
:100E500010D1A26A4FF0FF3300F4403103EB52028D
:100E6000B1EB024F06D194F82C1000F07060B0EB9B
:100E7000016F01D00120D1E70020CFE70438024004
:100E800000004742800E4742007000400000FFFF14
:100E900070B515460E46040003D094F8490010B111
:100EA00007E0012070BD002084F84800204600F0D3
:100EB0001DF804F108012068FFF71CFB3146A26809
:100EC0002068FFF74BFBD4E901022946236BFFF7AB
:100ED000F3FA2168A06851F8202042F0010241F89D
:100EE0002020012084F84900002070BDFFF76ABB74
:100EF00010B5401EB0F1807F01D3012010BD4FF02E
:100F0000E02460610F21601700F0FBFB0020A0616E
:100F100007202061002010BDFEE70000F0B50D4D58
:100F2000002407466B882A882146204600F0BCFA38
:100F30002E88688800214643084600F09BFA00F09E
:100F4000DBFA4FF0D84002E0A0F88070641CB44295
:100F5000FAD3F0BD6C000020F0B400271949F0224C
:100F60002C242A254FF4A0732B2638B101280FD04A
:100F70004FF0010C022813D003281AD08F710A8079
:100F80004B800C814D818E810020F0BC00F034BA82
:100F90008F710A804B800C814D818E810320F4E794
:100FA00081F806C00B804A800C814D818E8105201E
:100FB000EBE781F806C00B804A800C814D818E8161
:100FC0000620E2E76C0000202DE9FE4F161ACDE95D
:100FD00000104FF000085D1A47464FF0FF30002E1A
:100FE00002DD4FF0010102E003D14FF000018B461A
:100FF00002E08346C6F10006002D02DD4FF001003D
:1010000002E003D14FF00000824602E08246C5F1C3
:101010000005AE4201DD344600E02C46601C4FF076
:101020000009029019E000980C9A81B2019880B2F0
:1010300000F09CF8B0442F44A04504DD0198A8EBD3
:10104000040858440190A74203DD00983F1B504418
:10105000009009F101001FFA80F902998945E2DD4B
:10106000BDE8FE8F2DE9F8411D46079C16468846CF
:1010700007460B460094FFF7A7FF3A462B4641462A
:1010800010460094FFF7A0FF2B463246194638461B
:101090000094FFF799FF32462B46414610460094D4
:1010A000FFF792FFBDE8F8812DE9FF4F804600254C
:1010B0001446032082B00F46A0EB440651E0381BD3
:1010C00081B208EB050A01901FFA8AF0059A00F038
:1010D0004DF8781B009081B208EB04091FFA89F0E3
:1010E000059A00F043F807EB050B1FFA8BF11FFA86
:1010F00089F0059A00F03AF807EB04091FFA89F124
:101100001FFA8AF0059A00F031F8A8EB050A1FFAD9
:1011100089F11FFA8AF0059A00F028F8A8EB040973
:101120001FFA8BF11FFA89F0059A00F01FF8019859
:10113000059A81B21FFA8AF000F018F80098059A13
:1011400081B21FFA89F000F011F86D1C002E03DA4D
:1011500006EB8506B61D04E0281B06EB8006641E20
:101160000A36A542ABDD06B0BDE8F08F30B50C4CB9
:10117000A388A3F51345413D11D14FF0D8436589AC
:1011800023F87E5F050A5D80C0B25880A089188070
:10119000080A5880C8B25880208918805A8030BD0B
:1011A0006C0000202DE9F0438146A2EB0900401CB1
:1011B0001E4685B20C464FF0D848079F10E02146E6
:1011C000484600F057F900F097F90020414603E047
:1011D000A1F88070401C80B2A842F9D3641CA4B26C
:1011E000B442ECD9BDE8F08370B5002000F0F8F807
:1011F00074494FF6FF754FF0D844888049F2413268
:10120000FF2804D3A84202D0B0F5134F14D1D32045
:10121000A4F87E0000F0DAF8888000F0D7F8888023
:1012200000F0D4F805EA0020888000F0CFF88B8821
:101230001843888090427DD180B290427BD1CF20EC
:1012400024F87E0F00206080C12060803020608004
:10125000ED20208064206080032060801220608068
:1012600081206080E82020808520608010206080C0
:101270007A206080CB202080392060802C20608004
:10128000002060803420608002206080F720208071
:1012900020206080EA202080002060806080C020C4
:1012A00020801B206080C120208001206080C5201C
:1012B0002080302060806080C7202080B720608040
:1012C00036202080482060803A2020805520608091
:1012D000B1202080002060801A206080B62020800D
:1012E0000A206080A2206080F220208000206080A0
:1012F0002620208001206080E02020800F20608058
:101300002A20608028206080082060800E20608075
:101310000820608054206080A92060804320608085
:101320000A2060800F2060800020608060806080E4
:10133000608001E044E036E0E12020800020608011
:101340001520608017206080072060801120608059
:10135000062060802B206080562060803C206080CA
:1013600005206080102060800F2060803F2060801A
:1013700060800F2060802B202080002060806080B3
:10138000012060803F2060802A2020800020608033
:1013900060806080EF206080112020807820FFF73F
:1013A000FFF8292020800020FFF7D6FD0122D1037D
:1013B0000548FFF753FA2846BDE87040FFF7AEBD79
:1013C00070BD00006C0000200004024008B54FF022
:1013D000D840B0F88000ADF80000BDF8000008BDAE
:1013E00010B54FF0D841A1F87E000120FFF7D8F8E2
:1013F000BDE81040FFF7EABF1D4B10B59A880021E9
:10140000A2F51344413C32D1082812D2DFE800F0A3
:10141000110406080A0C0E1080210AE0402108E0A1
:10142000C02106E0202104E0602102E0A02100E0CC
:10143000E02141F00801362000F068F84FF0D84074
:10144000598920F87E1F0021418041801988491E5A
:101450000A0A4280C9B241809989018000214180F5
:1014600041805988491E0A0A4280C9B2418010BD94
:101470006C0000200B4B10B59A88A2F51344413C38
:101480000ED14FF0D8425C8922F87E4F040A548076
:10149000C0B2508098891080080A5080C8B250802D
:1014A00010BD00006C00002070B50244521E94B2C2
:1014B000CA18104B521E95B29A88A2F51346413EA7
:1014C00016D14FF0D8425E8922F87E6F060A568008
:1014D000C0B25080200A5080E0B2508098891080BD
:1014E000080A5080C8B25080280A5080E8B2508064
:1014F00070BD00006C00002003484FF0D841008907
:10150000A1F87E00704700006C0000204FF0D84228
:1015100022F87E0F5180704710B58EB01C216846AE
:10152000FEF788FE1C2107A8FEF784FE1A484FF03C
:10153000204110220160194941600621816000218B
:10154000C160C0E904128161C16113020162C0E996
:1015500009139302C0E90B134163816341640F20B7
:101560003C230090CDE9010303AC112384E80E0075
:1015700009240691CDE9074009AC082084E80F0052
:101580000D9107AA69460448FFF782FC002801D0A4
:10159000FEF790FF0EB010BD1C000020040100A05B
:1015A00030B587B014216846FEF744FE264801682E
:1015B00041F080010160016801F08001059101683E
:1015C00041F020010160016801F0200105910168EE
:1015D00041F010010160016801F0100105910168FE
:1015E00041F002010160016801F00201059101680A
:1015F00041F008010160016801F0080105910168EE
:1016000041F001010160016801F0010105910168EB
:1016100041F04001016000680C4D00F040004FF4C3
:1016200000440590002221462846FFF717F90121C2
:101630000220CDE90210CDE9004169462846FFF7B6
:1016400015F807B030BD00003038024000040240F9
:10165000FEE7FEE770477047FFF70CB930B593B06F
:1016600030216846FEF7E6FD14210CA8FEF7E2FDE6
:101670001D480025016841F080510160006800F0BC
:10168000805011901948016841F480410160006860
:10169000022400F480401190012003901020049057
:1016A000009406940820CDE90750A820CDE909044C
:1016B00004200B906846FFF735FA08B172B6FEE7D2
:1016C0000CA90F2081E831004FF4A0500F904FF487
:1016D0008050109005210CA8FFF758F9002801D080
:1016E00072B6FEE713B030BD4038024000700040D3
:1016F0000248016841F470010160704788ED00E024
:10170000FEE70907090E002804DB00F1E02080F85D
:101710000014704700F00F0000F1E02080F8141D65
:10172000704702E008C8121F08C1002AFAD17047AA
:101730007047002001E001C1121F002AFBD1704751
:10174000FFF7A0F8FFF78AFFFFF72AFFFFF7E4FE95
:10175000FFF74AFD03494FF478400880FEF715FE75
:10176000FCE700001800002000000000000000005E
:10177000010203040607080998170008000000206A
:101780001C00000022170008B41700081C000020ED
:101790006404000032170008000000000000000090
:1017A0000100000010000000000000000024F40010
:0417B0000000FFFF37
:040000050800018965
:00000001FF
