:020000040800F2
:1000000018150020A1010008DF1D00089514000844
:10001000DD1D0008C10500087D2B00080000000060
:10002000000000000000000000000000251F000884
:10003000C305000800000000E11D0008271F00089C
:10004000BB010008BB010008BB010008BB010008A0
:10005000BB010008BB010008BB010008BB01000890
:10006000BB010008BB010008BB010008BB01000880
:10007000BB010008BB010008BB010008BB01000870
:10008000BB010008BB010008BB010008BB01000860
:10009000BB010008BB010008BB010008BB01000850
:1000A000BB010008BB010008BB010008BB01000840
:1000B000BB010008BB010008BB010008BB01000830
:1000C000BB010008BB010008BB010008E51D0008DA
:1000D000BB010008BB010008BB010008BB01000810
:1000E000BB010008BB010008BB010008BB01000800
:1000F000BB010008BB010008BB010008BB010008F0
:10010000BB010008BB010008BB010008BB010008DF
:10011000BB010008BB010008BB010008BB010008CF
:10012000BB010008BB010008BB010008BB010008BF
:10013000BB010008BB010008BB010008BB010008AF
:10014000BB010008BB010008BB010008BB0100089F
:10015000BB010008BB010008BB010008BB0100088F
:10016000BB010008BB010008BB010008BB0100087F
:10017000BB010008BB010008BB0100080000000033
:10018000BB010008BB010008DFF810D000F006FA40
:1001900000480047CD2E0008AFF30080181500205E
:1001A0000648804706480047FEE7FEE7FEE7FEE711
:1001B000FEE7FEE7FEE7FEE7FEE7FEE7C11F0008F9
:1001C000890100082DE9F05F0546002092469B4614
:1001D00088460646814640241BE02846414647465D
:1001E000224600F01CF953465A46C01A914110D3DA
:1001F00011461846224600F003F92D1A67EB010854
:100200004F4622460120002100F0FAF817EB0009C2
:100210004E41201EA4F10104DFDC484631462A4647
:100220004346BDE8F09FD2B201E000F8012B491E21
:10023000FBD270470022F6E710B513460A46044683
:100240001946FFF7F0FF204610BD2DE9FE4F81EA69
:10025000030404F0004421F0004100944FF0000B2F
:1002600023F0004350EA01045ED052EA03045BD05D
:10027000C3F30A54C1F30A552C44A4F2F334019495
:10028000A0FB0254C1F3130141F48011C3F3130323
:1002900043F4801301FB024400FB034E840A970AD7
:1002A00044EA815447EA8357A4FB076802958D0A04
:1002B00005FB07854FEA932C04FB0C542705029D90
:1002C0004FEA065847EA1637B5EB08056EEB070C00
:1002D000870E920E47EA811742EA8312A7FB0201BA
:1002E000B6EB0B0164EB00042B0D43EA0C335E18F4
:1002F00044EB1C50DA465146E7FB0201C5F31304F8
:100300004FEA0B3343EA14534FEA0432019C43EAA9
:100310000603A4F10C040294009CCDE900B400F0A3
:100320009DF803B0BDE8F08F00200146F9E70EB557
:1003300040F2334102910021CDE900110A460B46FB
:1003400000F08CF803B000BDC1F30A5210B5C1F340
:10035000130140F2FF3341F480119A4201DA002088
:1003600010BD40F233439A42A2F2334203DC5242C0
:1003700000F055F810BD904010BD00F0004230F084
:1003800000400AD0C10D01F56071C0F3160042EAC9
:100390000151C208400711437047002001467047D1
:1003A00030B5041E71F1000404DB4FF000444042FC
:1003B00064EB0101141E73F1000405DB1C464FF0D1
:1003C0000043524263EB04038B4208BF824230BDBC
:1003D00030B5041E71F1000404DB4FF000444042CC
:1003E00064EB0101141E73F1000405DB1C464FF0A1
:1003F0000043524263EB0403994208BF904230BD70
:10040000202A04DB203A00FA02F1002070479140D4
:10041000C2F1200320FA03F3194390407047202AC9
:1004200004DB203A21FA02F00021704721FA02F39E
:10043000D040C2F12002914008431946704710B5E0
:10044000141E73F1000408DA401C41F100019218F7
:100450005B411A4301D120F0010010BD2DE9F04DA0
:1004600092469B4611B1B1FA81F202E0B0FA80F2F5
:1004700020329046FFF7C4FF04460F4640EA0A00C8
:1004800041EA0B0153465A46084313D0114653EA3A
:10049000010019D0C8F140025046FFF7C0FF0546E1
:1004A0000E46504659464246FFF7AAFF084305D07C
:1004B000012004E020463946BDE8F08D00200543C8
:1004C00046EAE0762C4337430A986305E40AA0EB3A
:1004D00008000022FD0A44EA47540A3002D50020F1
:1004E0000146E9E7010510196941DDE908450019F0
:1004F0006941BDE8F04DA2E72DE9F04D00231A4611
:100500001B1A8A4103DB00200146BDE8F08DC1F3D0
:100510000A52C1F3130141F480154FF0000BD107CB
:1005200002D100186D41521E0027044640F2FF110F
:10053000384601EB620A3E468046024600204FF4F0
:100540008011FFF76CFFC2197141BB1846EB010027
:10055000B4EB030C75EB000C04D3E41A65EB000557
:1005600017460E46241908F101006D4180463428D3
:10057000E3DDF91946EB0600091BA84103D24FF051
:10058000FF32134601E0002213461BEB070046EB47
:100590000A51BDE8F04DFFF752BF0000064C074D71
:1005A00006E0E06840F0010394E807009847103443
:1005B000AC42F6D3FFF7ECFDEC4700080C4800080E
:1005C000FEE7704772B6FEE730B5B3F5804F05D051
:1005D0006FF0704140F82210002030BD8C690B682C
:1005E0008D6823434C688989240144EA0524234308
:1005F00043EA014150F82230014C23401943E9E716
:100600000000F0CF10B50A6850F8223023F0010343
:1006100040F822308C68082C23D000234A682243FB
:10062000CC681C430B6922431A434B690E4C1A4396
:10063000CB691A430B6A1A434B6A1A438B6A1A43F3
:10064000CB6A1A430B6B1A438B691343CA6B096855
:100650001A4350F82130A343134340F821300020BF
:1006600010BD4023DAE700007FFF0F0030B5D1E96D
:10067000003443EA04138C688D89240244EA05445B
:1006800023430C8A094D00EB820005EB04542343FD
:100690000C7D6D0105EB0464896923430B434168BC
:1006A00001F040410B434360002030BD0000F0FFEB
:1006B00090F83510022903D0802141650120704750
:1006C000052180F835100068016821F00101016002
:1006D0000020704770B5044600F064F90546601CC0
:1006E00002D004480078044400F05CF9401BA042AA
:1006F000FAD370BD080000202DE9F04186B0142126
:100700006846FFF797FD20480168002939D101218B
:1007100001601E480024016841F001010160006889
:100720004FF4805800F001000C27CDF80080CDE98F
:100730000470032602250396CDE901546946144846
:1007400000F02EF84FF68070CDE9000502AA694648
:1007500082E8D0000F4800F023F84CF23370CDE966
:10076000000502AA694682E8D0000B4800F018F89C
:1007700002AA694682E8D000CDE90085074800F06A
:100780000FF806B0BDE8F0810000002038380240C4
:100790000014024000100240000C02400018024009
:1007A0002DE9F84FDFF8BCA10022012503264FF008
:1007B0000F090AF1040BAAF1040E00BF0B6805FA39
:1007C00002F42340A34270D10F7907F00307012FF1
:1007D00001D0022F16D187684FEA420806FA08FCBA
:1007E00027EA0C07D1F80CC00CFA08FC4CEA070CFD
:1007F000C0F808C04768A7430C79C4F300149440BC
:100800003C4344600C79E443A4070AD0C4684FEA2F
:10081000420C06FA0CF7BC438F6807FA0CF7274323
:10082000C7600C7904F00304022C12D1D40800EB49
:10083000840CDCF820405707FF0E09FA07F824EA79
:100840000804D1F8108008FA07F848EA0408CCF840
:10085000208004684FEA420C06FA0CF7BC430F797B
:1008600007F0030707FA0CF7274307604C6814F4F6
:10087000403F70D03C4C276847F48047276024688D
:1008800022F0030704F480440094384C07EB040C76
:10089000DCF8084897074FEA177809FA08F7BC43CD
:1008A000334FB84202D1002724E054E0314FB84220
:1008B00001D101271EE0304FB84201D1022719E0D3
:1008C0002E4FB84201D1032714E02D4FB84201D179
:1008D00004270FE02B4FB84201D105270AE02A4F29
:1008E000B84201D1062705E0284FB84201D10727B9
:1008F00000E0082707FA08F72743CCF80878DAF869
:1009000000405746D1F804C09C435FEACC2C00D588
:100910001C433C60DBF800405F46D1F804C09C43B8
:100920005FEA8C2C00D51C433C60DEF80040774623
:10093000D1F804C09C435FEA8C3C00D51C433C606A
:10094000084F083F3C68D1F804C09C435FEACC3CA8
:1009500000D51C433C60521C102AFFF42FAFBDE8A9
:10096000F88F0000083C014044380240003001404C
:10097000000002400004024000080240000C024057
:10098000001002400014024000180240001C024007
:100990000069084000D0012070470AB181617047AA
:1009A0000904FBE701488068704700000800002048
:1009B0000248816802781144816070470800002075
:1009C0000B4810B5016841F400710160016841F401
:1009D00080610160016841F480710160032000F0D2
:1009E0006FF80F2000F006F800F024F8002010BD8A
:1009F000003C024070B50D4D04464FF47A712878E2
:100A0000B1FBF0F00A490968B1FBF0F000F02EFDEF
:100A100048B9102C07D200222146501E00F030F8B1
:100A200000206C6070BD012070BD00000800002037
:100A3000140000200A4808B5016841F480410160B3
:100A4000006800F4804000900548001F016841F0F4
:100A500080510160006800F08050009008BD0000E7
:100A600044380240002809DB00F01F0201219140B8
:100A70004009800000F1E020C0F80011704700003C
:100A8000F0B40E4B1B680C46C3F30223C3F10705F9
:100A9000042D00D90425191D072901D2002300E0E7
:100AA000DB1E012606FA05F1491E214099409E40B1
:100AB000761E16403143F0BC02F0A6B90CED00E002
:100AC000064900F0070208684FF6FF03184040EAA5
:100AD0000220034A10430860704700000CED00E05C
:100AE0000000FA052DE9F0470E46050065D0DFF855
:100AF0001481D8F80000F7B200F00700B04207D226
:100B000088F80070D8F8000000F00700B04254D117
:100B100028683D4C810712D5400703D5206840F472
:100B2000E05020602878000703D5206840F460403A
:100B300020602068A96820F0F00008432060287831
:100B4000C0072DD0304968680839012812D0022822
:100B500013D0032811D00968890700292DDA2168EC
:100B600021F0030101432160FFF71CFF814641F2A0
:100B7000883A0EE009688903EFE709688901ECE724
:100B8000FFF710FFA0EB0901514502D90320BDE892
:100B9000F0872068696800F00C00B0EB810FEFD19E
:100BA000D8F80010404601F00701B14207D907709C
:100BB000006800F00700B04201D00120E7E7287884
:100BC000400705D52068E96820F4E050084320601C
:100BD0002878000706D52068296920F4604040EA9B
:100BE000C100206000F018F82168084AC1F3031121
:100BF000515CC8400649086006480068FFF7FAFEE5
:100C00000020C4E7003C0240083802409C2F000846
:100C1000140000200C000020154810B5006810F0EA
:100C20000C02144813D01449042A0FD0082A0ED1FC
:100C30000F4C241F2268236802F03F025B0207D595
:100C40002068C0F38810A0FB010106E0084610BD33
:100C50002168C1F38811A1FB00010023FFF7B2FA5C
:100C60002168C1F30141491C4900B0FBF1F010BDFE
:100C7000083802400024F40040787D012DE9F84F47
:100C800004006ED02078DFF84C93C007A9F104056A
:100C90004AD009F104000168C1F38101012908D09B
:100CA0000068C0F3810002280AD1D9F80000400290
:100CB00006D52868800337D560680028E1D033E086
:100CC0006068B0F5803F10D0B0F5A02F286810D034
:100CD00020F480302860286820F480202860606834
:100CE000A8B1FFF75FFE06460DE0286840F48030AB
:100CF000F4E740F480202860F7E700BFFFF752FEDA
:100D0000801B642873D828688003F7D50CE0FFF7B0
:100D100049FE064605E000BFFFF744FE801B64283D
:100D2000F0D828688003F7D42078DFF8AC828007F9
:100D30004FF0000A3ED5A748001D016811F00C0FC6
:100D400008D00068C0F3810002280BD1D9F8000058
:100D5000400207D42868800716D5E068012800D132
:100D600012E033E1E068B8B10120C8F80000FFF7F5
:100D700019FE064605E000BFFFF714FE801B02289F
:100D8000C0D828688007F7D52868216920F0F800C6
:100D900040EAC10028600DE0C8F800A0FFF702FE9D
:100DA000064604E0FFF7FEFD801B02281FD82868D6
:100DB0008007F7D42078000722D5864F87486169DD
:100DC000703771B101210160FFF7ECFD064604E0C8
:100DD000FFF7E8FD801B022809D838688007F7D59F
:100DE0000EE0C0F800A0FFF7DDFD064605E082E05A
:100DF000FFF7D8FD801B02287DD838688007F7D41C
:100E00002078400768D5DFF8CCB100270BF13C0B08
:100E1000DBF80000C0000BD4DBF8001041F080517B
:100E2000CBF80010DBF80000012700F080500090A4
:100E30006B4E3068C00510D4306840F4807030606C
:100E4000FFF7B0FD009005E0FFF7ACFD0099401AF8
:100E5000022850D83068C005F6D55E4EA0686C36C2
:100E600001280FD00528306810D020F00100306034
:100E7000306820F004003060A068B8B1FFF792FD40
:100E800000900FE0306840F00100F4E740F004000B
:100E90003060F7E7FFF786FD0099411A41F288308C
:100EA000814266D830688007F4D50EE0FFF77AFDFE
:100EB000009007E0FFF776FD0099411A41F2883073
:100EC000814256D830688007F4D42FB1DBF8001087
:100ED00021F08051CBF80010A069C8B33D49091D2D
:100EE0000968C1F3810102294AD00228504607D07F
:100EF000C8F8600000E03CE0FFF754FD04463BE02A
:100F00004746C8F86000FFF74DFD064605E000BF04
:100F1000FFF748FD801B02282BD828688001F7D4F2
:100F2000D4E907010843A16A2E4A490802EB0141AE
:100F3000626A41EA8211084394F82C1040EA016188
:100F4000C9F8001001203866FFF72CFD044606E0C2
:100F50003EE000BFFFF726FD001B022809D82868E5
:100F60008001F7D534E000BFFFF71CFD001B02280D
:100F700002D90320BDE8F88F28688001F4D427E067
:100F80000128F7D0D9F80000E26900F4800191420D
:100F90001CD1226A00F03F01914217D147F6C0717F
:100FA000626A0140B1EB821F10D1A26A4FF0FF3399
:100FB00000F4403103EB5202B1EB024F06D194F83A
:100FC0002C1000F07060B0EB016F01D00120D1E770
:100FD0000020CFE70438024000004742800E47421D
:100FE000007000400000FFFF7047000038B5016846
:100FF00004464A688868C043430606D5C30704D13F
:10100000D3435B0601D4216C05E0830708D4D343A6
:101010001B0605D4616C01B02046BDE8304008478E
:10102000830603D5430601D5C30551D4D3439B069C
:101030004ED443060AD494F85130032B49D0636D43
:1010400043F004036365CB688B680093830609D47F
:10105000636D43F0010363658B6800930B6823F0B5
:1010600040030B60C00506D4606D40F00800606569
:10107000206880680090606D002829D02068416851
:1010800021F0E0014160012084F85100900701D473
:10109000D00722D02068416821F003014160114D42
:1010A000E06C40B10565E06CFFF702FB18B1606DC4
:1010B00040F040006065A06C002809D00565A06C78
:1010C000FFF7F6FA002803D0606D40F0400060653D
:1010D00038BDC8688868009038BD2046FFF784FF97
:1010E00038BD0000F11D000870B5040009D0606A29
:1010F000002540B125616561A56294F8510040B1B9
:101100000CE0012070BD6068B0F5827FF4D0E5612D
:10111000F2E784F85050204600F044F8022084F8AA
:1011200051002068016821F040010160A0882189F8
:1011300000F4827001F404410843A18901F40061C4
:101140000843217C01F002010843217D01F00101E7
:101150000843218B01F400710843217F01F038011D
:10116000084394F8201001F080010843218D01F418
:101170000051084321680860A069042101EA104079
:1011800094F8241001F01001084321684860206899
:10119000C16921F40061C1616565012084F85100D5
:1011A000002070BD10B586B0044614216846FFF7D4
:1011B00041F817492068884228D116480021026862
:1011C00042F480520260006800F48050059011489B
:1011D0001438026842F002020260006800F0020067
:1011E0000590382000900220CDE9010103200390F2
:1011F0000520049069460848FFF7D2FA00221146FC
:101200002320FFF73DFC2320FFF72CFC06B010BD88
:101210000030014044380240000402402DE9FF4FF5
:1012200081B01D46934604464FF001090E9EFFF71C
:10123000B9FB074694F851006168012806D0B1F562
:10124000827F3CD1A168C9BB042838D1029800280C
:1012500071D0BBF1000FFBD0002DF9D094F85000F5
:1012600001282CD04FF0010A84F850A094F85100C6
:10127000042802D0052084F851004FF00008C4F87B
:101280005480C4F838B0E587A58702992163E586C4
:10129000A586C4F84080C4F84480206801684906E7
:1012A00003D4016841F040010160E068B0F5006FCF
:1012B000606808D0F0B3012D49D081E0FFE702203B
:1012C00005B0BDE8F08F08B1012D39D1206B216840
:1012D0000088C860206B801C2063E08E401EE08682
:1012E0002EE02068816889070FD5E18E69B1B9F1D8
:1012F000010F0AD1216B0988C160206B801C20631B
:10130000E08E401EE0864FF0000920688168C90722
:101310000CD0E18F51B1C068A16B0880A06B801C1C
:10132000A063E08F401EE0874FF00109FFF73AFB12
:10133000C01B01E00BE067E0B04201D3701C50D14C
:10134000E08E0028CDD1E08F0028CAD13EE0206B8E
:10135000216800780873206B401C2063E08E401EDB
:10136000E0862DE02068816889070FD5E18E69B19C
:10137000B9F1010F0AD1216B09780173206B401C70
:101380002063E08E401EE0864FF0000920688168EF
:10139000C9070CD0E18F51B1C068A16B0870A06B78
:1013A000401CA063E08F401EE0874FF00109FFF76B
:1013B000F9FAC01BB04202D3701C01D011E086B113
:1013C000E08E0028CED1E08F0028CBD13A463146BE
:1013D000204600F015FD50B12020606584F8508053
:1013E00012E084F851A084F85080032068E7A068D8
:1013F00018B92068C1688068009084F851A084F80A
:101400005080606D0028F1D0012059E770B5154675
:101410000E46040003D094F8490010B107E0012003
:1014200070BD002084F84800204600F01DF804F14B
:1014300008012068FFF7E6F83146A2682068FFF748
:1014400015F9D4E901022946236BFFF7BDF821689D
:10145000A06851F8202042F0010241F8202001202C
:1014600084F84900002070BDFFF746B910B5401E52
:10147000B0F1807F01D3012010BD4FF0E024606106
:101480000F21601701F0C0FC0020A061072020613F
:10149000002010BDFEE70000F0B50D4D002407460A
:1014A0006B882A882146204600F08EFA2E886888AC
:1014B00000214643084600F06DFA00F07BFB4FF038
:1014C000D84002E0A0F88070641CB442FAD3F0BDAA
:1014D00008010020F0B400271949F0222C242A2505
:1014E0004FF4A0732B2638B101280FD04FF0010C18
:1014F000022813D003281AD08F710A804B800C81E8
:101500004D818E810020F0BC00F006BA8F710A80F8
:101510004B800C814D818E810320F4E781F806C059
:101520000B804A800C814D818E810520EBE781F88C
:1015300006C00B804A800C814D818E810620E2E737
:10154000080100202DE9FE4F161ACDE900104FF0DA
:1015500000085D1A47464FF0FF30002E02DD4FF0C5
:10156000010102E003D14FF000018B4602E0834607
:10157000C6F10006002D02DD4FF0010002E003D1AC
:101580004FF00000824602E08246C5F10005AE42FF
:1015900001DD344600E02C46601C4FF0000902904B
:1015A00019E000980C9A81B2019880B200F088F896
:1015B000B0442F44A04504DD0198A8EB040858442A
:1015C0000190A74203DD00983F1B5044009009F1B1
:1015D00001001FFA80F902998945E2DDBDE8FE8F1E
:1015E00000B500F0D7F900F0E5FA03484FF0D84114
:1015F0000088A1F8800000BD180000202DE9FF4FF1
:10160000804600251446032082B00F46A0EB440616
:1016100051E0381B81B208EB050A01901FFA8AF0ED
:10162000059A00F04DF8781B009081B208EB040990
:101630001FFA89F0059A00F043F807EB050B1FFA33
:101640008BF11FFA89F0059A00F03AF807EB0409CC
:101650001FFA89F11FFA8AF0059A00F031F8A8EB19
:10166000050A1FFA89F11FFA8AF0059A00F028F896
:10167000A8EB04091FFA8BF11FFA89F0059A00F014
:101680001FF80198059A81B21FFA8AF000F018F845
:101690000098059A81B21FFA89F000F011F86D1CCC
:1016A000002E03DA06EB8506B61D04E0281B06EBC8
:1016B0008006641E0A36A542ABDD06B0BDE8F08F99
:1016C00030B50C4CA388A3F51345413D11D14FF023
:1016D000D843658923F87E5F050A5D80C0B25880D3
:1016E000A0891880080A5880C8B2588020891880BC
:1016F0005A8030BD0801002070B5002000F000F9CC
:1017000074494FF6FF754FF0D844888049F2413252
:10171000FF2804D3A84202D0B0F5134F14D1D32030
:10172000A4F87E0000F0E2F8888000F0DFF88880FE
:1017300000F0DCF805EA0020888000F0D7F88B88FC
:101740001843888090427DD180B290427BD1CF20D7
:1017500024F87E0F00206080C120608030206080EF
:10176000ED20208064206080032060801220608053
:1017700081206080E82020808520608010206080AB
:101780007A206080CB202080392060802C206080EF
:10179000002060803420608002206080F72020805C
:1017A00020206080EA202080002060806080C020AF
:1017B00020801B206080C120208001206080C52007
:1017C0002080302060806080C7202080B72060802B
:1017D00036202080482060803A202080552060807C
:1017E000B1202080002060801A206080B6202080F8
:1017F0000A206080A2206080F2202080002060808B
:101800002620208001206080E02020800F20608042
:101810002A20608028206080082060800E20608060
:101820000820608054206080A92060804320608070
:101830000A2060800F2060800020608060806080CF
:10184000608001E044E036E0E120208000206080FC
:101850001520608017206080072060801120608044
:10186000062060802B206080562060803C206080B5
:1018700005206080102060800F2060803F20608005
:1018800060800F2060802B2020800020608060809E
:10189000012060803F2060802A202080002060801E
:1018A00060806080EF206080112020807820FEF72B
:1018B00011FF292020800020FFF70CFE0122D10318
:1018C0000548FFF76AF82846BDE87040FFF7E4BD19
:1018D00070BD000008010020000402400246012003
:1018E00000E05043491EC9B2FBD2704708B54FF023
:1018F000D840B0F88000ADF80000BDF8000008BD89
:1019000010B54FF0D841A1F87E000120FEF7E2FEAD
:10191000BDE81040FFF7EABF1D4B10B59A880021C3
:10192000A2F51344413C32D1082812D2DFE800F07E
:10193000110406080A0C0E1080210AE0402108E07C
:10194000C02106E0202104E0602102E0A02100E0A7
:10195000E02141F00801362000F036F94FF0D84080
:10196000598920F87E1F0021418041801988491E35
:101970000A0A4280C9B241809989018000214180D0
:1019800041805988491E0A0A4280C9B2418010BD6F
:10199000080100200B4B10B59A88A2F51344413C76
:1019A0000ED14FF0D8425C8922F87E4F040A548051
:1019B000C0B2508098891080080A5080C8B2508008
:1019C00010BD00000801002070B50244521E94B200
:1019D000CA18104B521E95B29A88A2F51346413E82
:1019E00016D14FF0D8425E8922F87E6F060A5680E3
:1019F000C0B25080200A5080E0B250809889108098
:101A0000080A5080C8B25080280A5080E8B250803E
:101A100070BD0000080100202DE9FF4F1D460C4657
:101A20008A46580700D0012000EBD500690810FB5A
:101A300001F0203A00F0FF09D0B20026DFF894B0A0
:101A4000029043E00C2D10D0102D13D0182D3FD153
:101A50000298214900EBC00001EB80004FF0000824
:101A6000875D38060BD50D9A0DE002981B4900EBF7
:101A70004000F1E71A49029801EB0010EEE70E98DA
:101A800028B91848428821460098FFF719FE7806C1
:101A9000070E641CBBF80200A4B2A04218D9A4EB44
:101AA0000A00A84209D100985446401C80B2009018
:101AB000BBF8001081420BD906E008F1010000F0EC
:101AC000FF08B8F1080FCCD3761CF6B24E45B9D357
:101AD000BDE8FF8F08010020103A0008AC2F000875
:101AE00020340008180000202DE9FF4F82B00026A6
:101AF000DDE90FBA1D4681463446B0464FEA5B0722
:101B000026E0281B401EC1B20A20FFF7E7FE049919
:101B1000B1FBF0F00A21B0FBF1F201FB120026B993
:101B2000691E8C4201DA38B101263030C2B207FB9F
:101B3000049080B25B4604E007FB049080B25B46F1
:101B40002022CDE900A80399FFF766FF641CE4B2E8
:101B5000AC42D6D306B0BDE8F08F2DE9FC4F044669
:101B600000F0FF0910190D461FFA80F8581987B2C6
:101B70004FF0000ADDF82CB00D9E13E0444503D36E
:101B800005EB0B004C4685B2BD4210D20C99CDE955
:101B9000001A5B4629462046FFF73EFF04EB5B0038
:101BA00084B2761C3278A2F120005E28E6D9BDE826
:101BB000FC8F000003484FF0D8410089A1F87E0057
:101BC00070470000080100204FF0D84222F87E0F35
:101BD0005180704710B58EB01C216846FEF72AFB75
:101BE0001C2107A8FEF726FB1A484FF020411022BF
:101BF000016019494160062181600021C160C0E98E
:101C000004128161C16113020162C0E909139302E8
:101C1000C0E90B134163816341640F203C230090B2
:101C2000CDE9010303AC112384E80E0009240691D9
:101C3000CDE9074009AC082084E80F000D9107AA00
:101C400069460448FFF7E2FB002801D0FEF7BAFC22
:101C50000EB010BD60000020040100A02DE9F0438B
:101C600087B014216846FEF7E5FA4648002501686A
:101C700041F004010160016801F00401059101686F
:101C800041F080010160016801F080010591016867
:101C900041F002010160016801F002010591016853
:101CA00041F020010160016801F020010591016807
:101CB00041F010010160016801F010010591016817
:101CC00041F008010160016801F008010591016817
:101CD00041F001010160016801F001010591016815
:101CE00041F0400101600068012200F04000264EF2
:101CF0005403059021463046FEF74FFEDFF88C90E6
:101D0000002248F201014846FEF747FEDFF88080D6
:101D1000A710002239464046FEF73FFE01229103FC
:101D20004846FEF73AFE00940124CDE90145694694
:101D300030460395FEF734FD01AA0226009482E89E
:101D4000700069464846FEF72BFD0620CDE90005E8
:101D5000694602944846FEF723FD01AA009782E8EF
:101D6000700069464046FEF71BFD4FF44040CDE948
:101D70000004CDE9024669464846FEF711FD07B06A
:101D8000BDE8F08330380240000802400004024001
:101D900000140240104810B50E4901604FF48271E2
:101DA0004160002102228160C0E9031201224261E8
:101DB0005202C0E906210162416281620A21C162C8
:101DC000FFF792F9002803D0BDE81040FEF7FABBF8
:101DD00010BD000000300140B0000020FEE7FEE72B
:101DE000704700000148FFF701B90000B000002073
:101DF00010B5806B0021C187C186FFF7F5F810BDD3
:101E0000F8B515460E460B46009204460122022103
:101E100000F02CF8A0B9134813490068B0FBF1F0AA
:101E20004FF47A71484300906068B0F5827F0DD11D
:101E30003346002280212046009500F017F870B14B
:101E4000606D40F0200060650320F8BD009830B15F
:101E5000401E009020688068C0430006F6D5002030
:101E6000F8BD00001400002000366E012DE9F84393
:101E70001E46914688460446089DFEF793FD401B8A
:101E8000351AFEF78FFD074625480068C0F3CB30B2
:101E9000684338E0701C37D0FEF784FDC01BA842B1
:101EA00003D215B1009860B32CE02068416821F09E
:101EB000E00141606068B0F5827F0BD1A068B0F5A9
:101EC000004F02D0B0F5806F04D12068016821F086
:101ED00040010160A06AB0F5005F09D12068016887
:101EE00021F4005101602068016841F40051016053
:101EF000012084F85100002084F850000320BDE840
:101F0000F8830025401E00902068816838EA0100AF
:101F100004D000214945BDD10020F0E70121F9E7B7
:101F2000140000207047FEF743BD000030B593B0A9
:101F300030216846FEF77EF914210CA8FEF77AF9E5
:101F40001D480025016841F080510160006800F0E3
:101F5000805011901948016841F480410160006887
:101F6000022400F48040119001200390102004907E
:101F7000009406940820CDE90750A820CDE9090473
:101F800004200B906846FEF779FE08B172B6FEE7B2
:101F90000CA90F2081E831004FF4A0500F904FF4AE
:101FA0008050109005210CA8FEF79CFD002801D060
:101FB00072B6FEE713B030BD4038024000700040FA
:101FC0000248016841F470010160704788ED00E04B
:101FD0002DE9FF4F83B0804610A84FF4784490E875
:101FE000000E55481025564E048054A00095CDE9AA
:101FF00001400F4673883288A0212820FFF7ADFDED
:1020000050A00095CDE9014073883288A021782046
:10201000FFF7A3FD4CA00095CDE9014073883288FD
:10202000B4212820FFF799FD48A00095CDE9014093
:1020300073883288B4217820FFF78FFD44A0009583
:10204000CDE9014073883288C8212820FFF785FD3B
:1020500040A00095CDE9014073883288C8217820DE
:10206000FFF77BFD3CA00095CDE9014073883288E5
:10207000DC212820FFF771FD38A00095CDE9014053
:1020800073883288DC217820FFF767FD34A0009543
:10209000CDE9014073883288F0212820FFF75DFDEB
:1020A000CDE9005404234246A0214020FFF71CFD47
:1020B000CDE9005404233A46A0219020FFF714FDF7
:1020C000CDE900540423B4214020059AFFF70CFD0C
:1020D000CDE900540423B4219020069AFFF704FDB3
:1020E000CDE9005404234A46C8214020FFF7FCFCF8
:1020F000CDE9005404235246C8219020FFF7F4FC98
:10210000CDE9005404235A46DC214020FFF7ECFCC3
:10211000CDE900540423DC219020139AFFF7E4FC5E
:10212000CDE900540323F0216020149AFFF7DCFC72
:1021300007B0BDE8F08F00001800002078313A00A9
:102140000801002079313A0078323A0079323A00B9
:1021500078333A0079333A0078343A0079343A00E7
:102160006661632069733A002DE9F04FDFF810A42F
:1021700000242DED0C8B89B04FF01F0B4FF6FF772D
:10218000254656463846AAF800B0FE490F80FFF7AC
:1021900083F9FD48A046A6F800804FF010090168B9
:1021A000CDF80090CDE9018128216423A0220846C2
:1021B000FFF7D3FC14214FF47842084600F088FA68
:1021C000F24E86F820809FEDF20A4FF0010886ED6E
:1021D000090A9FEDF08B9FEDF19B9FEDF2AB7168CB
:1021E0000120884796F82000B8EB901F48D120F0D6
:1021F000400086F8200005A8B18920F8241000EBE3
:102200008400641C0025F18AE4B24180012C06D0D0
:10221000022C11D0032C1FD0042C31D13FE014210B
:102220003A46084600F054FAE0484FF478420088F5
:10223000143880B2142121E0DC483A461421008889
:10224000143880B200F044FAD8484FF478424088FD
:10225000143881B2142011E0D4483A46408814382A
:1022600081B2142000F034FAD0484FF4784240880C
:10227000143881B2CD480088143880B200F028FAB2
:102280000A20FEF727FA6D1CADB2B5F57A7FA6D904
:1022900000F05EFA09B0BDEC0C8BBDE8F08FBDF824
:1022A0001400BDF81810401A00D54042BDF81610B1
:1022B000BDF81A20891A00D54942404301FB0100AC
:1022C000FEF735F841EC100B00F0AEFD51EC100BB1
:1022D000FEF73AF884B2BDF81C00BDF82010411A90
:1022E00000D54942BDF81E00BDF82220801A00D555
:1022F0004042494340430844FEF719F841EC100BB3
:1023000000F092FD51EC100BFEF71EF800EE104AA3
:1023100080B20090F8EE400A00EE100AB8EE401AC3
:1023200080EE810A10EE100AFEF727F841EC1B0B35
:1023300053EC182BFEF734F85CD353EC192B51EC0B
:102340001B0BFEF745F855D3F4B30098E0B3BDF886
:102350001400BDF81C10401A00D54042BDF81610FC
:10236000BDF81E20891A00D54942404301FB0100F7
:10237000FDF7DDFF41EC100B00F056FD51EC100BAA
:10238000FDF7E2FF84B2BDF81800BDF82010401A36
:1023900000D54042BDF81A10BDF82220891A00D598
:1023A0004942404301FB0100FDF7C1FF41EC100B26
:1023B00000F03AFD51EC100BFDF7C6FF00EE104A9D
:1023C00080B2F8EE400A00E014E000EE100AB8EE29
:1023D000401A80EE810A10EE100AFDF7CEFFB0EE33
:1023E00048CAF0EE68CA41EC1B0B53EC1C2BFDF7FE
:1023F000D7FF31D26D4800243A464188008814390D
:10240000143889B280B200F063F914214FF4784295
:10241000084600F05DF953EC1A2B51EC1B0BFDF74D
:1024200014FFFDF791FF80B2BDF82210BDF82030F7
:10243000BDF81E20CDE90310CDE90123BDF81C0035
:102440000090BDF81A30BDF81820BDF81610BDF880
:102450001400FFF7BDFDC2E6B0EE49DAF0EE69DA2E
:1024600053EC1D2B51EC1B0BFDF7B2FFC2D3BDF893
:102470001800BDF81C10401A00D54042BDF81A10D3
:10248000BDF81E20891A00D54942404301FB0100D6
:10249000FDF74DFF41EC100B00F0C6FC51EC100BAA
:1024A000FDF752FF84B2BDF81400BDF82010401AA9
:1024B00000D54042BDF81610BDF82220891A00D57B
:1024C0004942404301FB0100FDF731FF41EC100B95
:1024D00000F0AAFC51EC100BFDF736FF00EE104A9D
:1024E00080B2F8EE400A00EE100AB8EE401A80EE14
:1024F000810A10EE100AFDF740FF41EC1B0B53EC74
:102500001C2BFDF74DFFB1D353EC1D2B51EC1B0BD6
:10251000FDF75EFFAAD3BDF81840BDF81430234A7A
:10252000E01A00EE100A1088F6EE001AB8EEC01A93
:10253000A0F1280100EE101AE118B8EEC00AC0EEB2
:10254000010A00EE101AB8EE401A00EE100AB8EEBA
:10255000400AC6ED090A00EEC10A20EE210A86ED06
:102560000B0ABDF81E40BDF81630E11A00EE101A35
:102570005188B8EEC01AA1F1280C00EE10CA17E07D
:10258000180000201A0000206C47000824000020DA
:1025900000000000666666666666EE3FCDCCCCCC79
:1025A000CCCCF03F000000000000594008010020A2
:1025B000B8EEC02A2344FDEEE00A82EE010A01EEE5
:1025C000103A10EE903AB8EE412A01EE101A002BA4
:1025D000B8EE411A86ED0A0A00EE421A21EE211ADF
:1025E00086ED0C1A00DA5B42022B08DCBDEEC00A55
:1025F00010EE103A002B00DA5B42022B30DD14396A
:102600001438002489B280B23A4600F061F81421EF
:102610004FF47842084600F05BF820A24FF478406F
:10262000CDF80090CDE9010221481A2143880288A3
:102630002820FFF792FA96F8340048B15FF00000C6
:1026400086F8340030B11B4890210170D02105E09C
:102650000120F5E71748D021017090214170BEE5B7
:10266000AAF800B03846FEF717FF13A04FF47841E0
:10267000CDF80090CDE901100D4920204B880A8843
:102680006E21FFF76AFA4FF47A70FEF723F800F034
:10269000B1F93846FEF700FFFCE500005450204E2B
:1026A00065656420726561646A7573742100000059
:1026B000080100201C000020546F756368205363DC
:1026C0007265656E2041646A757374204F4B2100FA
:1026D0002DE9F84305461D4816460C46028005F1D3
:1026E0000D00009282B2193880B20B46FEF72AFF25
:1026F00004F10D0083B2193881B22A4610460096C3
:10270000FEF720FF671C05F10109B9B21FFA89F035
:10271000FEF766FFA5F10108B9B21FFA88F0FEF7CF
:102720005FFF671EB9B21FFA89F0FEF759FFB9B211
:102730001FFA88F0FEF754FF01B0334621462846C1
:10274000BDE8F0430622FEF759BF00001800002044
:1027500000B587B018220021684600F039FA9DF8CC
:1027600012109DF811000A2900D110B1002007B005
:1027700000BD17499DED000ADFED160A81ED010A43
:10278000B8EEC00A01F10800002280EE201A80EDA8
:10279000091A9DED010AB8EEC00A80EE201A80EDFC
:1027A0000A1A9DED020AB8EEC00A80ED0B0A9DEDF3
:1027B000030A81ED010AB8EEC00A80ED0C0A80F828
:1027C0003420D0200870902048700120CFE700000E
:1027D0001C00002020BCBE4C70B50D49A1F10A00C0
:1027E0000C46054600F0B4F82146284600F0B0F843
:1027F000FFF7AEFF08B1002070BD4FF6FF70FEF787
:102800004BFEFFF7B1FCFFF7A3FF012070BD0000F6
:102810003A0000202DE9F0470025314E07462C46AE
:102820002A4601213046FEF7B8F80022F1142D485F
:10283000FEF7B3F8DFF8B0904FF40058002241469D
:102840004846FEF7AAF8384600F064F90120FDF783
:1028500041FF002201213046FEF79FF80120FDF7DD
:1028600039FF012211463046FEF797F80120FDF7A7
:1028700031FF002201213046FEF78FF80120FDF7DD
:1028800029FF4FF6FF7700BF07EA44040022012129
:102890003046FEF782F80120FDF71CFF01221146A9
:1028A0003046FEF77AF804213046FEF771F8012829
:1028B00001D1641CA4B20120FDF70CFF6D1CEDB228
:1028C000102DE1D3002201213046FEF766F82409DD
:1028D000012241464846FEF760F82046BDE8F087F1
:1028E000000402400014024000080240FEB5064603
:1028F00000256C463046FFF78DFF24F815006D1C4F
:10290000ADB2052DF6D30020431C99B20CE000BFF8
:1029100034F8102034F81150AA4203D924F810508A
:1029200024F81120491C89B20529F1D398B2042852
:10293000EAD300215FF0010034F81020401C11445C
:1029400080B289B20428F7D30320B1FBF0F0FEBDBA
:102950002DE9F041074C06460D462078FFF7C6FFEB
:1029600007466078FFF7C2FF378028800120BDE866
:10297000F08100001C0000207FB50C46054669462A
:1029800002A8FFF7E5FF00282FD001A903A8FFF751
:10299000DFFF002829D0BDF80C30BDF80820934295
:1029A00003D803F13200824205D39A421FD802F1C4
:1029B000320083421BD2BDF80410BDF800008142F2
:1029C00003D801F13206B04204D388420FD8323026
:1029D00081420CD2D01840082880BDF80000BDF814
:1029E0000410084440082080012004B070BD00207D
:1029F000FBE70000194800B590ED090ADFED180A61
:102A0000011F87B020EE200A1822BDEEC00A81ED1A
:102A1000000A8DED000A90ED0A0A20EE200ABDEEB4
:102A2000C00A8DED010A90ED0B0ABDEEC00A8DEDD6
:102A3000020A90ED0C0ABDEEC00A81ED000A8DED90
:102A4000030A002180F834108DF811100A208DF847
:102A50001200684600F022F907B000BD24000020F3
:102A600020BCBE4C70B5054602212848FDF790FFFA
:102A7000274C40B194F8200001063BD520F080009F
:102A800084F820003DE0224800F116010C3015B119
:102A9000FFF772FF22E0FFF76FFFF8B1A089D4EDD6
:102AA0000B0A00EE100A94ED091AB8EE400A41EE46
:102AB000000ABCEEE00A10EE100AA081E08A94ED54
:102AC0000C0A00EE900A94ED0A1AF8EE600A01EE84
:102AD000200ABCEEC00A10EE100AE08294F8200032
:102AE00000060ED4C02084F82000A089A082E08ACD
:102AF000E08306E00020A082E0834FF6FF70A08113
:102B0000E08294F8200000F0800070BD00040240D4
:102B1000240000202DE9F041DFF85880164E0546CC
:102B200000244FF40067280601D5012200E00022AE
:102B300039464046FDF731FF6806050E00220121A7
:102B40003046FDF72AFF0120FDF7C4FD01221146A2
:102B50003046FDF722FF0120FDF7BCFD641CE4B206
:102B6000082CE0D33046BDE8F04100220121FDF7FA
:102B700014BF00000014024000040240FEE7000001
:102B800070B5040300F0D8F800F080F80F4E4FF451
:102B90008045002229463046FDF7FFFE202000F048
:102BA00061F8C4F3074000F05DF8C4F3072000F0BB
:102BB00059F8E0B200F056F8012229463046FDF7F8
:102BC000ECFEBDE8704000F061B800000004024077
:102BD0002DE9F041DFF8548015460C4606464FF4C7
:102BE0008047002239464046FDF7D7FE032000F01B
:102BF00039F8C4F3074000F035F8C4F3072000F0BB
:102C000031F8E0B200F02EF8002405E0FF2000F0DB
:102C100029F83055641CA4B2AC42F7D3394640467B
:102C2000BDE8F0410122FDF7B8BE000000040240FB
:102C300070B50B4E4FF48045002229463046FDF713
:102C4000ACFE052000F00EF8FF2000F00BF8044663
:102C5000012229463046FDF7A0FE204670BD000047
:102C60000004024001B582B04FF0FF300090012314
:102C700001AA02A90448FEF7D1FA08B1FDF7A2FCA7
:102C80009DF804000EBD0000B00000202DE91040AA
:102C9000FFF7CEFFC007FBD110BD00002DE9F05FAC
:102CA000C1F30B06DFF88C800F0BC6F58054894604
:102CB00082461546A24200D8144639038B464FF48B
:102CC00080524046FFF784FF002006E0321818F8D3
:102CD0000210FF2903D1401C80B2A042F6D3A042CB
:102CE00022D23846FFF74CFF002006E01AF80020F9
:102CF0008319401C08F8032080B2A042F6D359463D
:102D00004FF480524FEA080000F02CF8A5420FD093
:102D1000281BA244A144002685B24FF480547F1C96
:102D2000A542CAD82C46C8E7224649465046EBE79A
:102D3000BDE8F09F1601002070B5094D4FF48044A6
:102D4000002221462846FDF728FE0620FFF78AFFCD
:102D500021462846BDE870400122FDF71EBE000056
:102D6000000402402DE9F0410746C8B2C0F5807466
:102D70000E461546A24200D814464FF480782246EB
:102D80003146384600F00EF8A54208D0281B2744EB
:102D9000264485B24446A542F1D82C46EFE7BDE86B
:102DA000F08100002DE9F04115460C460646FFF77C
:102DB000C3FFDFF850804FF4804700223946404679
:102DC000FDF7EBFD0220FFF74DFFC4F30740FFF7CF
:102DD00049FFC4F30720FFF745FFE0B2FFF742FFCA
:102DE000002404E0305DFFF73DFF641CA4B2AC4258
:102DF000F8D3012239464046FDF7CFFDBDE8F0414A
:102E0000FFF744BF000402400907090E002804DB55
:102E100000F1E02080F80014704700F00F0000F18E
:102E2000E02080F8141D704700B52DED048BB0EE46
:102E3000409AF0EE609A83B051EC190BFDF75CFB01
:102E400041EC180B18EE100A18EE901A8DED008B5D
:102E5000002818BF0120084320F00040C0F17F6027
:102E600000F1E040C00F14D019EE101A19EE900ACC
:102E70008DED009B002918BF0121084320F0004080
:102E8000C0F17F6000F1E040C00F04BF012000F0FE
:102E900017F8B0EE480A03B0F0EE680ABDEC048BF8
:102EA00000BD02E008C8121F08C1002AFAD170470D
:102EB0007047002001E001C1121F002AFBD17047BA
:102EC00001490860704700005C0000200EB5FDF766
:102ED00077FDFFF72BF8FEF7C1FEFEF77BFEFEF74E
:102EE00059FFFEF709FC1C484FF4784404801B4846
:102EF00000688047102540F2DC5619A00095CDE906
:102F000001401023C82214211846FEF726FE18A0FF
:102F10000095CDE901401023C82228211846FEF76C
:102F20001CFE16A00095CDE901401023C8223C21CB
:102F30001846FEF712FE16A00095CDE901401023B9
:102F4000C82250211846FEF708FE3046FDF7C2FBA6
:102F5000FFF70AF9D1E70000180000202400002044
:102F60006D63756465762053544D333246340000EA
:102F7000544F554348205445535400006D637564C5
:102F800065762E74616F62616F2E636F6D00000055
:102F9000323031392F312F31350000000000000070
:102FA00000000000010203040607080900000000F9
:102FB0000000000000000000000000003F40000092
:102FC0000000000000003000400030004000000021
:102FD00009000BC03D000BC03D00090018C0244093
:102FE0007FE0224031800000180024C01B000D80CB
:102FF0003240018003801C4027401C800740004075
:103000001000600000000000000000000000000050
:1030100000001F80204040200000402020401F80F2
:1030200000000000090006001F80060009000000E3
:10303000040004003F800400040000000010006051
:103040000000000000000000040004000400040070
:10305000040000000000004000000000000000002C
:10306000002001C006003800400000001F80204002
:10307000204020401F800000000010403FC0004062
:103080000000000018C021402240244018400000E9
:1030900010802040244024401B80000002000D00CE
:1030A00011003FC0014000003C80244024402440E7
:1030B000238000001F80244024403440038000000F
:1030C0003000200027C03800200000001B80244072
:1030D000244024401B8000001C0022C022402240CB
:1030E0001F800000000000000840000000000000F9
:1030F0000000000004600000000000000000040068
:103100000A00110020804040090009000900090060
:103110000900000000004040208011000A00040067
:103120001800200023402400180000001F802040C9
:10313000274029401F400000004007C039000F0011
:1031400001C0004020403FC0244024401B800000BC
:103150001F802040204020403080000020403FC0A1
:10316000204020401F80000020403FC024402E40CF
:1031700030C0000020403FC024402E00300000003E
:103180000F001080204022403380020020403FC0CA
:10319000040004003FC02040204020403FC02040A9
:1031A000204000000060202020203FC020002000A0
:1031B00020403FC024400B0030C0204020403FC092
:1031C00020400040004000C03FC03C0003C03C0025
:1031D0003FC0000020403FC00C4023003FC0200003
:1031E0001F802040204020401F80000020403FC022
:1031F00024402400180000001F802140214020E0CE
:103200001FA0000020403FC02440260019C00040FD
:1032100018C024402440224031800000300020406B
:103220003FC020403000000020003F8000400040B0
:103230003F80200020003E0001C007003800200031
:10324000380007C03C0007C038000000204039C0EB
:10325000060039C0204000002000384007C0384038
:1032600020000000304021C02640384020C000002F
:10327000000000007FE040204020000000007000BF
:103280000C000380004000000000402040207FE050
:1032900000000000000020004000200000000000AE
:1032A00000100010001000100010001000000000BE
:1032B00040000000000000000000028005400540C2
:1032C00003C0004020003FC00440044003800000D1
:1032D000000003800440044006400000000003801A
:1032E000044024403FC000400000038005400540EA
:1032F00003400000000004401FC024402440200080
:10330000000002E0055005500650042020403FC058
:103310000440040003C000400000044027C00040F7
:103320000000000000100010041027E00000000062
:1033300020403FC00140070004C00440204020401E
:103340003FC000400040000007C0040007C0040068
:1033500003C00000044007C00440040003C0004054
:10336000000003800440044003800000041007F0C4
:103370000450044003800000000003800440045017
:1033800007F00010044007C00240040004000000E1
:10339000000006400540054004C000000000040095
:1033A0001F800440004000000400078000400440EB
:1033B00007C000400400070004C0018006000400AC
:1033C000060001C0070001C006000000044006C05E
:1033D000010006C0044000000410071004E0018052
:1033E000060004000000044005C006400440000040
:1033F0000000000004007BE040200000000000000E
:103400000000FFF000000000000040207BE004000E
:10341000000000004000800040002000200040002C
:10342000000000000000000000000000000000009C
:103430000000000000001FCC000C00000000000095
:10344000000008003000600008003000600000004C
:10345000022003FC1E20022003FC1E20022000008C
:1034600000000E1811043FFF10840C7800000000CB
:103470000F0010840F3800C007781884007800000F
:1034800000780F8410C411240E9800E40084000812
:10349000080068007000000000000000000000004C
:1034A00000000000000007E018182004400200009F
:1034B000000040022004181807E00000000000008F
:1034C0000240024001800FF00180024002400000F3
:1034D0000080008000800FF80080008000800000E5
:1034E0000001000D000E00000000000000000000C0
:1034F000000000800080008000800080008000804C
:103500000000000C000C00000000000000000000A3
:10351000000000060018006001800600180020006E
:10352000000007F0080810041004080807F0000065
:103530000000080408041FFC000400040000000050
:1035400000000E0C10141024104411840E0C000006
:1035500000000C1810041104110412880C700000F3
:10356000000000E00320042408241FFC00240000C5
:1035700000001F98108411041104108810700000BE
:10358000000007F00888110411041888007000007A
:1035900000001C00100010FC13001C0010000000B4
:1035A00000000E3811441084108411440E380000BD
:1035B00000000700088C10441044088807F0000041
:1035C000000000000000030C030C000000000000DD
:1035D00000000000000101060000000000000000E3
:1035E00000000080014002200410080810040000C0
:1035F00002200220022002200220022002200000DD
:10360000000010040808041002200140008000009F
:1036100000000E001200100C106C10800F00000053
:1036200003E00C1813E4142417C4082807D0000082
:103630000004003C03C41C40074000E4001C0004DC
:1036400010041FFC1104110411040E880070000006
:1036500003E00C1810041004100410081C100000E3
:1036600010041FFC100410041004080807F00000E8
:1036700010041FFC1104110417C4100408180000E2
:1036800010041FFC1104110017C0100008000000F6
:1036900003E00C181004100410441C7800400000D3
:1036A00010041FFC10840080008010841FFC100494
:1036B0000000100410041FFC10041004000000009F
:1036C00000030001100110011FFE10001000000097
:1036D00010041FFC110403801464181C1004000063
:1036E00010041FFC1004000400040004000C00007F
:1036F00010041FFC1F0000FC1F001FFC1004000032
:1037000010041FFC0C04030000E010181FFC100044
:1037100007F00808100410041004080807F000005F
:1037200010041FFC10841080108010800F00000017
:1037300007F0081810241024101C080A07F20000D3
:1037400010041FFC1104110011C011300E0C0004F4
:1037500000000E1C11041084108410441C3800005A
:103760001800100010041FFC1004100018000000C6
:1037700010001FF810040004000410041FF81000CB
:1037800010001E0011E0001C007013801C001000CF
:103790001FC0103C00E01F0000E0103C1FC00000F4
:1037A0001004180C163401C001C01634180C100493
:1037B00010001C00130400FC13041C001000000087
:1037C0000804101C1064108413041C04101800005A
:1037D0000000000000007FFE4002400240020000A6
:1037E000000030000C0003800060001C000300009B
:1037F00000004002400240027FFE00000000000086
:1038000000000000200040004000400020000000B8
:1038100000010001000100010001000100010001A0
:1038200000004000400020000000000000000000F8
:1038300000000098012401440144014400FC0004FC
:1038400010001FFC008801040104008800700000C3
:1038500000000070008801040104010400880000D9
:103860000000007000880104010411081FFC00041E
:10387000000000F8014401440144014400C8000074
:103880000000010401040FFC1104110411001800D0
:10389000000000D601290129012901C90106000003
:1038A00010041FFC008401000100010400FC00045E
:1038B00000000104190419FC0004000400000000C9
:1038C0000000000300010101190119FE00000000C1
:1038D00010041FFC0024004001B4010C010400008E
:1038E0000000100410041FFC00040004000000008D
:1038F000010401FC0104010001FC0104010000FCC1
:10390000010401FC008401000100010400FC00042A
:10391000000000F8010401040104010400F80000A3
:10392000010101FF0085010401040088007000000E
:1039300000000070008801040104010501FF00017E
:103940000104010401FC0084010401000180000065
:10395000000000CC0124012401240124019800006E
:1039600000000100010007F801040104000000004C
:10397000010001F8000400040004010801FC000437
:10398000010001800170000C001001600180010045
:1039900001F0010C003001C00030010C01F0010009
:1039A00000000104018C00740170018C010400000E
:1039B000010101810171000E001801600180010008
:1039C00000000184010C013401440184010C000059
:1039D000000000000000000001003EFC4002400228
:1039E0000000000000000000FFFF000000000000D9
:1039F0000000400240023EFC010000000000000008
:103A00000000600080008000400040002000200096
:103A100000000000000000000000000000000000A6
:103A20000000000000000000000000000000000096
:103A30000000000000000000000000000000000086
:103A40000000000F80380FFE380F803800000000A3
:103A50000000000000000000000000000000010065
:103A6000000600000C0000380000310000060000D5
:103A70000C000038000030000000000000000000D2
:103A800061800067F807F980006180006180006153
:103A9000800061800067F807F98000618000000005
:103AA00000000000000001C0E003E0F00630080460
:103AB00018081FFFFE040E080787F00381E00000CE
:103AC0000000000001F000060C00040408060C7061
:103AD00001F9C0000E00003BE000EC1807080804E4
:103AE0000C180003E00000000001E00007F003F8FC
:103AF00018041C0804170807E1D003C0E00023B035
:103B0000003C080020080000100000000000000138
:103B100000003100003200001C0000000000000026
:103B20000000000000000000000000000000000095
:103B30000000000000000000000000000000000085
:103B40007F0001FFC00780F00C0018100004200067
:103B5000020000000000002000021000040C001809
:103B60000780F001FFC0007F00000000000000009F
:103B7000000000000000000000000000420000669D
:103B800000006600003C0000180003FFC0001800A1
:103B9000003C0000660000660000420000000000DB
:103BA000080000080000080000080000080001FFED
:103BB000C00008000008000008000008000008001D
:103BC00000000000000100003100003200001C0075
:103BD00000000000000000000000000000000000E5
:103BE00000000000000000000800000800000800BD
:103BF000000800000800000800000800000800009D
:103C000008000008000000000000000000000000A4
:103C100038000038000038000000000000000000FC
:103C20000000000000000000000000000000000094
:103C3000000600001C000070000180000E0000382B
:103C40000000C0000700001C000030000000000061
:103C5000000000007F8001FFE00380700600180470
:103C6000000804000806001803807001FFE0007FD0
:103C700080000000000000000000010008010008B2
:103C800001000803FFF807FFF80000080000080023
:103C9000000800000000000000000001C03802C061
:103CA00058040098040118040218040418061C188B
:103CB00003F81801E0F80000000000000000000117
:103CC000C0E003C0F004000804080804080806184F
:103CD0000803F41801E7F00001E000000000000014
:103CE000000000000300000D000011000061000052
:103CF000810803010807FFF80FFFF8000108000121
:103D0000080000000000000000E007FCD0060808E2
:103D1000061008061008061008061838060FF006E8
:103D200007C0000000000000000000003F8001FF0D
:103D3000E003843002081804100804100804100876
:103D4000071810030FF00007C0000000000000007B
:103D5000000003C0000700000600000600F8060788
:103D6000F806180006E0000700000600000000004A
:103D700000000001E1E003F7F00634100418080425
:103D80001808040C08040C0806161803F3F001C107
:103D9000E000000000000000F80003FC30030638DB
:103DA0000402080402080402080404100308F001D5
:103DB000FFC0007F000000000000000000000000C5
:103DC00000000000000000007038007038007038FB
:103DD00000000000000000000000000000000000E3
:103DE000000000000000000000000000301A003059
:103DF0001C000000000000000000000000000000A7
:103E00000000000000000008000014000022000074
:103E100041000080800100400200200400100800E2
:103E20000800000000000000210000210000210027
:103E300000210000210000210000210000210000DD
:103E40002100002100000000000000000000080028
:103E500008040010020020010040008080004100A2
:103E60000022000014000008000000000000000311
:103E7000C00004C000040000080038080F3808081B
:103E8000380810000C300007E00003C000000000FC
:103E9000000000003F8000FFE0038070020F10066A
:103EA000708804C088048308047F8802C0900301DE
:103EB0002000FE400000080000180001F8003E0845
:103EC00001C20007020007E20000FE00001FC80058
:103ED00001F800003800000804000807FFF807FF99
:103EE000F804080804080804080804080806180864
:103EF00003F41801E7F00001E000000000000000FA
:103F00003F8001FFE00380700200180400080400F5
:103F1000080400080400100600200780C00000000C
:103F200004000807FFF807FFF8040008040008046D
:103F3000000804001802001003807001FFE0007FF9
:103F40008000000004000807FFF807FFF8040808D5
:103F5000040808040808040808043E0804000806C9
:103F6000001801006000000004000807FFF807FFC8
:103F7000F8040808040800040800040800043E00CF
:103F800006000006000001800000000000000000A4
:103F90003F8001FFE003807006001804000804025F
:103FA000080402080203F00783F000020000020088
:103FB00004000807FFF807FFF804080800080000DD
:103FC000080000080000080004080807FFF807FFC1
:103FD000F8040008000000000000040008040008C5
:103FE00004000807FFF807FFF804000804000804AD
:103FF00000080000000000000000000000060000B3
:104000000700000104000104000104000307FFFE93
:1040100007FFFC040000040000040000040008077F
:10402000FFF807FFF8040C08001800003E0004C762
:10403000800503C80600F8040038040018000008D2
:1040400004000807FFF807FFF80400080000080054
:104050000008000008000008000008000018000028
:104060006000000004000807FFF807800807FC0054
:10407000007FC00003F80007C00078000780080731
:10408000FFF807FFF804000804000807FFF807001E
:104090000803C00000E000003800001E0000070018
:1040A0000001C00400F007FFF80400000000000059
:1040B0007F8001FFE0038070060018040008040000
:1040C0000806001803003001FFE0007F80000000B8
:1040D00004000807FFF807FFF804040804040004BC
:1040E0000400040400040400060C0003F80001F0BE
:1040F00000000000000000007F8001FFE0038070EE
:104100000600880400880400C806003C03003E0145
:10411000FFE6007F8400000004000807FFF807FFA7
:10412000F8040808040800040C00040F00040BC085
:104130000610F003F03801E008000008000000015C
:10414000E0F803F030063010041808041808040CD6
:1041500008040C080206180207F00781E0000000BE
:1041600001800006000004000004000004000807AD
:10417000FFF807FFF8040008040000040000060030
:104180000001800004000007FFE007FFF0040018B2
:1041900000000800000800000800000800000804F3
:1041A000001007FFE004000004000006000007E024
:1041B0000007FE00041FE00001F80000380001E0E5
:1041C000043E0007C00006000004000004000007D1
:1041D000E00007FFC0041FF80007C007F80007FF52
:1041E00080043FF80007C004F80007000004000046
:1041F00000000004000806001807C07805F1C80098
:104200003E00001F800463E80780F80600180400E1
:104210000800000004000006000007800007E00816
:10422000047C08001FF80007F800180804E00807DD
:104230000000060000040000000000010008060065
:10424000380400F80403E8040F08047C0805F008AB
:1042500007C008070018040060000000000000000C
:1042600000000000000000000000003FFFFE2000F2
:1042700002200002200002200002200002000000B4
:1042800000000000000008000007000000C000005F
:1042900038000006000001C000003000000E0000E1
:1042A00001000000000000000000200002200002C9
:1042B0002000022000022000023FFFFE000000005C
:1042C00000000000000000000000000000000000EE
:1042D0000008000010000030000020000030000046
:1042E00010000008000000000000000000000100B5
:1042F00000010000010000010000010000010000B9
:1043000001000001000001000001000001000001A7
:10431000000000000000000000200000200000104D
:10432000000010000000000000000000000000007D
:10433000000000000000000000F00019F8001B1849
:10434000002208002608002408002410003FF8007E
:104350001FF800000800001800000004000007FF1C
:10436000F80FFFF0001818001008002008002008BF
:10437000003018001FF0000FC00000000000000017
:1043800007C0001FF000183000200800200800209F
:1043900008003C08001C1000006000000000000045
:1043A0000000000007C0001FF000381800200800BF
:1043B000200800200804101007FFF80FFFF000008D
:1043C000100000000000000000000007C0001FF007
:1043D00000123000221800220800220800320800D3
:1043E0001E10000E20000000000000002000002031
:1043F0000800200801FFF803FFF806200804200841
:104400000420080720000300000000000000000056
:10441000000E000E6E001FF30031B10020B100202D
:10442000B1003191001F13002E1E00200E0030003D
:1044300000000004000807FFF80FFFF80010080054
:104440002000002000002008003FF8001FF80000B6
:104450000800000000000000000000200800200804
:10446000002008063FF8063FF8000008000008009A
:104470000008000000000000000000000000000034
:1044800003000003002001002001002003063FFE7E
:10449000063FFC00000000000000000000000004D7
:1044A000000807FFF80FFFF8000188000300002F45
:1044B000C00038F800203800200800000800000084
:1044C00000000000000004000804000804000807C1
:1044D000FFF80FFFF80000080000080000080000C7
:1044E00000000000002008003FF8003FF80010081E
:1044F000002000003FF8003FF800100800200000F6
:104500003FF8003FF8000008000000002008003FCE
:10451000F8003FF8001008001000002000002008FC
:10452000003FF8001FF80000080000000000000035
:1045300007C0000FF00018300030080020080020ED
:1045400008003008001830000FF00007C00000001D
:10455000000000002001003FFF003FFF001011009D
:104560002009002008002008003038001FF0000F4C
:10457000C00000000000000007C0001FF000381855
:10458000002008002008002009001011001FFF0073
:104590003FFF00000100000000200800200800206C
:1045A00008003FF8003FF800080800100800200845
:1045B000002000003000003000000000000000007B
:1045C0000000000C78001E180033080023080021AA
:1045D000080021880021980030F0003860000000B9
:1045E00000000000200000200000200000FFF00379
:1045F000FFF800200800200800200800003000001C
:1046000000000000000000002000003FF0007FF8E4
:10461000000018000008000008002010003FF8000B
:104620007FF00000100000000000000020000030BB
:1046300000003C00003F800023F000007800007084
:10464000002380003C00003000002000002000001B
:104650003C00003FE00023F80000E0002700003E9F
:1046600000003FE00021F80001E0003E00002000D3
:10467000000000002008002008003838003E6800D4
:1046800027800003C8002CF80038380020180020CC
:1046900008000000000000002000003003003C0182
:1046A000003F830023EC000070002380003C0000EA
:1046B0002000002000000000000000000000003882
:1046C000080020380020F80023E8002F88003E086A
:1046D00000380800201800007000000000000000F2
:1046E00000000000000000000000000008000014AE
:1046F000001FF7FC30000620000200000000000050
:1047000000000000000000000000000000000000A9
:104710000000FFFFFF00000000000000000000009C
:104720000000000000000000000020000230000631
:104730001FF7FC001400000800000000000000004B
:1047400000000000000000000000001800006000F1
:1047500000400000400000200000100000080000A1
:104760000400000400000C00001000007047000866
:10477000506C65617365207573652074686520737E
:1047800074796C757320636C69636B207468652041
:1047900063726F7373206F6E207468652073637229
:1047A00065656E2E5468652063726F737320776938
:1047B0006C6C20616C77617973206D6F7665207504
:1047C0006E74696C207468652073637265656E2011
:1047D00061646A7573746D656E7420697320636FAC
:1047E0006D706C657465642E000000000C48000854
:1047F0000000002060000000A22E00086C480008A5
:1048000060000020B8140000B22E00080000000074
:104810000000000001000000100000000000000087
:104820000024F4000000FFFFD09000000000000012
:10483000D9270008652A0008692100080000000047
:104840000000000000000000000000000000000068
:104850000000000000000000000000000000000058
:0C4860000000000000000000000000004C
:040000050800018965
:00000001FF
